S00E00004D6F727068342E73726563DC
S11300000C9434000C9446000C9446000C94460066
S11300100C9446000C9446000C9446000C94460044
S11300200C9446000C9446000C9446000C94460034
S11300300C9446000C9446000C9446000C94460024
S11300400C9446000C9446000C9446000C94460014
S11300500C9446000C9446000C9446000C94460004
S11300600C9446000C94460011241FBECFEFD4E03C
S1130070DEBFCDBF21E0A0E0B1E001C01D92A132FE
S1130080B207E1F70E94C0000C948A020C940000AD
S113009080EC80937C00EAE7F0E083E08083808159
S11300A080688083808180648083808186FDFDCF29
S11300B08091780090917900089580937C00EAE71C
S11300C0F0E0808180648083808186FDFDCF809113
S11300D07800909179000895259A2498239A229A79
S11300E08CB581658CBD08958EBD0DB407FEFDCF22
S11300F08EB50895CF93C62F813089F028F08230D1
S1130100C9F0833011F12BC0299A2898872F806D6C
S11301100E9474008C2F0E947400289A20C0299A8F
S11301202898872F80650E9474008C2F0E94740089
S1130130289A15C0289A2998872F806D0E947400E8
S11301408C2F0E947400299A0AC0289A2998872F14
S113015080650E9474008C2F0E947400299ACF91AC
S113016008950E94480083E080930901209A219A0F
S11301708FEF8AB97894289A299A0E946C0008957E
S11301800E94B1000F2EF3E04F2EF02D68947724D7
S113019071F8662463940F2EF3E58F2E99249394BB
S11301A0F02D0F2EF1E0AF2EF1E0BF2EF02D0F2E2B
S11301B0FDE4EF2EFF24F394F02D0F2EF7E02F2E05
S11301C0F1E03F2EF02DC3E1D1E06894552452F8BC
S11301D08BB18F708BB92BB19091000100E1909F8E
S11301E0C0011124822B8BB9339929C020910001BD
S11301F0822F86958695813059F038F0823059F0F7
S1130200833061F080931E010BC070921E0108C000
S113021040921E0105C010921E0102C060921E0190
S113022023702093190180911E0190E0FC01EE0FD0
S1130230FF1F8E0F9F1FFC01E95FFE4F22838091F9
S1130240000190E001968F709078992324F401972F
S1130250806F9F6F019680930001862D0E945D0040
S1130260A0E0B0E08093010190930201A093030108
S1130270B093040180E00E945D0090931401809388
S113028013019250409101015091020160910301C8
S1130290709104018A019B01080F191F211D311D52
S11302A00093010110930201209303013093040190
S11302B0872D0E945D0096958795969587959695CE
S11302C08795A401481B590B5093200140931F01AB
S11302D0F501808191819E5F9C01992324F422275A
S11302E03327281B390B429FC001439F900D529F17
S11302F0900D1124892F992782958F708701081BEF
S1130300190BC801880F991F880F991F880F991F0F
S1130310F101918380838130944010F0459A01C0AB
S11303204598F501808191818D549F4F9C0122F461
S113033022273327281B390B40911F01509120019C
S1130340249FC001259F900D349F900D1124892F67
S1130350992782958F708701081B190BC801880F94
S1130360991F880F991F880F991FF1019483838324
S11303708130944010F0449A01C04498F501808182
S11303809181835B91099C0122F422273327281B46
S1130390390B40911F0150912001249FC001259FDA
S11303A0900D349F900D1124892F992782958F7079
S11303B08701081B190BC801880F991F880F991F03
S11303C0880F991FF101978386838130944010F040
S11303D05A9A01C05A98F5018081918192509C01EA
S11303E0992324F422273327281B390B40911F011A
S11303F050912001249FC001259F900D349F900DA2
S11304001124892F992782958F708701081B190B56
S1130410C801880F991F880F991F880F991FF10130
S1130420928781878130944010F05B9A01C05B9879
S1130430009105011091060160911C0170911D014C
S1130440409117015091180120911A0130911B011C
S1130450A9E0B1E0F101DC90D11005C08081918167
S1130460680F791F10C081E0D81205C08081918186
S1130470080F191F0FC082E0D81205C08081918136
S1130480480F591F07C083E0D81204C080819181AE
S1130490280F391F13963396EC17FD07E1F63093B6
S11304A01B0120931A0150931801409317011093D4
S11304B006010093050170931D0160931C01509285
S11304C0160180E00E947A00609105017091060196
S11304D0862D0E947A006091170170911801872D72
S11304E00E947A0060911A0170911B01842D0E9470
S11304F07A0010921D0110921C01109206011092B4
S11305000501109218011092170110921B0110920C
S10B05101A015ECEF894FFCF3E
S9030000FC
