S00E00004D6F727068342E73726563DC
S11300000C9434000C9446000C9446000C94460066
S11300100C9446000C9446000C9446000C94460044
S11300200C9446000C9446000C9446000C94460034
S11300300C9446000C9446000C9446000C94460024
S11300400C9446000C9446000C9446000C94460014
S11300500C9446000C9446000C9446000C94460004
S11300600C9446000C94460011241FBECFEFD4E03C
S1130070DEBFCDBF21E0A0E0B1E001C01D92A533F9
S1130080B207E1F70E94F0000C9433020C940000D4
S113009080EC80937C0083E080937A0080917A00E6
S11300A0806880937A0080917A00806480937A00DB
S11300B080917A0086FDFCCF809178009091790040
S11300C0089580937C0080917A00806480937A0004
S11300D080917A0086FDFCCF809178009091790020
S11300E00895259A2498239A229A8CB581658CBD0B
S11300F008958EBD0DB407FEFDCF8EB50895CF9340
S1130100982FC62F872F913069F040F09230A1F0DC
S11301109330D9F4289A2998806511C0299A28988F
S1130120806D03C0299A289880650E9479008C2FDD
S11301300E947900289A09C0289A2998806D0E9403
S113014079008C2F0E947900299ACF9108950E94FA
S1130150480083E080930D01209A219A8EEF8AB99A
S11301603D9A3C9A7894289A299A0C94710020918B
S1130170010130910201DC01A21BB30BB7FF03C0E4
S1130180B195A195B10920913101309132010E94BC
S11301901D02AB01BC0139E07595679557954795EC
S11301A03A95D1F78DE491E0A0E0B0E0841B950B83
S11301B0A60BB70B97FF02C080E090E0A0E0B0E090
S11301C023E0880F991FAA1FBB1F2A95D1F780939C
S11301D0190190931A01A0931B01B0931C01089577
S11301E00E94A700C3E0D2E011E08BB18F708BB9FD
S11301F02BB19091000130E1939FC0011124822B17
S11302008BB98091000133992CC0982F96959695BF
S1130210913059F038F0923069F0933071F0909346
S1130220300111C0D093300102C0C0933001982F27
S1130230909506C01092300102C010933001982F9F
S11302409370909325012091300130E0F901EE0F75
S1130250FF1F2E0F3F1FF901E55FFE4F909125010F
S1130260928390E001968F7099278093000181E03A
S11302700E946100A0E0B0E09250A109B10980930E
S1130280010190930201A0930301B093040180E063
S11302900E9461009093180180931701925040913D
S11302A001015091020160910301709104016A01FE
S11302B07B01C80ED91EE11CF11CC0920101D09231
S11302C00201E0920301F092040182E00E946100C5
S11302D0909332018093310180E09EEF0E94B70039
S11302E090930C0180930B018130944010F0459A57
S11302F001C045988DE49FEF0E94B70090930F01D1
S113030080930E018130944010F0449A01C04498C7
S113031083EB90E00E94B700909312018093110147
S11303208130944010F05A9A01C05A9880E092E0CB
S11303300E94B7009093150180931401813094407A
S113034010F05B9A01C05B9860912C0170912D01B3
S1130350409123015091240120910501309106011F
S1130360A0912601B091270180E0843059F1E82F53
S1130370F0E07F01EE0CFF1CEE0DFF1DE55FFE4F6C
S11303809281911106C00190F081E02D6E0F7F1FC4
S113039017C0913031F40190F081E02D2E0F3F1FF2
S11303A00FC0923031F40190F081E02D4E0F5F1FA9
S11303B007C0933029F40190F081E02DAE0FBF1FE8
S11303C08F5FD3CF80932201B0932701A09326019E
S11303D05093240140932301309306012093050197
S11303E070932D0160932C0180E00E947F00609146
S11303F005017091060181E00E947F006091230154
S11304007091240182E00E947F0060912601709126
S1130410270183E00E947F0010922D0110922C018D
S113042010920601109205011092240110922301EA
S11304301092270110922601D8CE0E942402B7FF01
S11304400895821B930B0895A29FB001B39FC0012E
S1130450A39F700D811D1124911DB29F700D811DEC
S10D04601124911D0895F894FFCFB4
S9030000FC
